:100000000C9438000C9455000C9455000C94550039
:100010000C9455000C9455000C9455000C9455000C
:100020000C9455000C9455000C9455000C945500FC
:100030000C9455000C9455000C9455000C945500EC
:100040000C9455000C9455000C9455000C94E70248
:100050000C9455000C9455000C9455000C945500CC
:100060000C9455000C9455000C9455000C945500BC
:1000700011241FBECFEFD4E0DEBFCDBF12E0A0E061
:10008000B1E0E6EDF0E102C005900D92A632B107B5
:10009000D9F722E0A6E2B2E001C01D92A433B20774
:1000A000E1F70E9457000C9469080C9400000E942C
:1000B000F3020E9403030E94C6000E94E0010E9416
:1000C00057016BEF72E08FEF92E00E946903789422
:1000D0000E9464022FEF8FEF9EE0215080409040FD
:1000E000E1F700C000000E94D6002FEF8FEF9EE0E6
:1000F000215080409040E1F700C0000080E090E097
:100100000E9404010EE011E0C0E08C2F0E94DA0191
:100110008FEF9FE20197F1F700C00000CF5FCF3F64
:10012000A1F78C2F0E94DA018FEF9FE20197F1F780
:1001300000C00000C150A9F79FEF2FE781E0915068
:1001400020408040E1F700C000C080E090E00E94C5
:1001500004010E941301C62FD72FF82EE92E0E940A
:100160009D010E946B019F938F93EF92FF92DF930B
:10017000CF931F930F930E94B4038DB79EB7089639
:100180000FB6F8949EBF0FBE8DBFBECF8FB58160F6
:100190008FBD8EB588608EBD8D9A80E88ABD8FB583
:1001A00080688FBD8EB581608EBD0895EF92FF92FD
:1001B0001F93CF93DF938AE191E00E94CA03C0E0CE
:1001C000D5E10F2EFEE2EF2EF1E0FF2EF02D1C2FD9
:1001D00010611F921F93CE0195519F938F93FF92B1
:1001E000EF920E94B40319930F900F900F900F900D
:1001F0000F900F90C43085E1D80749F7DF91CF9178
:100200001F91FF90EF90089510920015289BFECF4C
:10021000A82FB92FE0E0F5E181918D93E43085E1DD
:10022000F807D1F70895CF93DF9300D000D0CDB772
:10023000DEB7CE0101960E9404018A8190E08058C9
:10024000910944E6489F9001499F300D11243323C2
:1002500014F421583F4F220F232F221F330B80917C
:10026000280290912902A901481B590B898190E02D
:100270008058910964E6689F9001699F300D1124B0
:10028000332314F421583F4F220F232F221F330B07
:10029000E0912602F0912702B9016E1B7F0BCA0183
:1002A0000F900F900F900F90DF91CF9108952FEF47
:1002B0008FE791E0215080409040E1F700C000C0FE
:1002C0000E941301709327026093260290932902E3
:1002D0008093280208950E941301FB01AC019B0149
:1002E0002F5C3F4F2336310530F49C012F5C3F4F8C
:1002F00023363105F8F0DC01552324F4AA27BB2767
:10030000A81BB90B9B01FF2324F422273327261BAC
:10031000370B2A173B073CF4852F881F8827881F37
:1003200090E002960895872F8095881F8827881F60
:1003300090E0089584E090E00895CF93DF9300D09B
:1003400000D0CDB7DEB7CE0101960E9404018C81AA
:1003500090E08058910944E6489F9001499F300DF4
:100360001124332314F421583F4F220F232F221F2F
:10037000330B8B8190E08058910964E6689FA0015F
:10038000699F500D1124552314F441585F4FBA0151
:10039000660F672F661F770BC9010F900F900F90A4
:1003A0000F90DF91CF910895E0910201F091030148
:1003B00080830895E0910001F09101018083089508
:1003C000E0910201F09103018EEA8083E091020145
:1003D000F091030181EA8083E0910201F091030131
:1003E0008AED8083E0910201F091030182E1808334
:1003F000E0910201F091030188EC8083E091020119
:10040000F091030188EA8083E0910201F0910301F9
:100410008FE38083E0910201F091030185ED8083F9
:10042000E0910201F091030180E88083E0910201F4
:10043000F091030181E88083E0910201F0910301D2
:1004400080E58083E0910201F091030189ED8083D2
:10045000E0910201F091030181E28083E0910201C9
:10046000F091030180E28083E0910201F0910301A9
:1004700082E08083E0910201F09103018BED8083A3
:10048000E0910201F091030180E38083E091020199
:10049000F09103018DEA8083E0910201F091030164
:1004A0001082E0910201F091030184EA8083E091DF
:1004B0000201F091030186EA8083E0910201F0914C
:1004C00003018FEA80830895CF92DF92EF92FF922B
:1004D0000F931F93CF93DF9380E491E00E94CA03B0
:1004E0000E9459037C010E945E03C12CD12C00E0C4
:1004F00010E0C6E5D1E00E945903F601F85E808362
:1005000020812817A9F099279F938F931F922F93EB
:10051000DF92CF92DF93CF930E94B4030F5F1F4F00
:100520008DB79EB708960FB6F8949EBF0FBE8DBFCD
:100530009FEFC91AD90AC11488E0D806E1F6C701AD
:100540000E945E03C0E0D0E0E12CF12C0F2EFFE80A
:10055000CF2EF1E0DF2EF02D0E945903FE01F85E50
:1005600020812817B1F099279F938F931F922F9383
:10057000DF93CF93DF92CF920E94B4039FEFE91AEB
:10058000F90A8DB79EB708960FB6F8949EBF0FBEB6
:100590008DBF2196C11598E0D907F1F6FF92EF9231
:1005A0001F930F938CEC91E09F938F930E94B40361
:1005B0000F900F900F900F900F900F90DF91CF91B1
:1005C0001F910F91FF90EF90DF90CF9008951F92B1
:1005D0000F920FB60F921124F89478940F900FBEDB
:1005E0000F901F9018958FE189B988E18AB986E844
:1005F00080BD579A08955F9BFECF8CB108955D9B97
:10060000FECF8CB9089580B7806280BF85B78260C5
:1006100085BF85B7806885BF08958F929F92AF92FE
:10062000BF92CF92DF92EF92FF92CF93DF93EC01D4
:10063000688179818A819B816115710581059105A8
:1006400021F464E279ED8BE597E02DE133EF41E0B1
:1006500050E00E94CF0749015A019B01AC01A7EA73
:10066000B1E40E94EE076B017C01ACEEB4EFA50192
:1006700094010E94FC07DC01CB018C0D9D1DAE1D79
:10068000BF1DB7FF03C00197A109B04888839983B4
:10069000AA83BB839F77DF91CF91FF90EF90DF908C
:1006A000CF90BF90AF909F908F9008950E940D03C0
:1006B000089584E091E00E940D030895A0E0B0E069
:1006C0008093040190930501A0930601B093070164
:1006D00008950F931F93CF93DF93009731F4611523
:1006E000710519F480E090E03AC08B01EC016EE0F6
:1006F00070E081E090E00E94DB05FC01892B91F322
:1007000080E883830115110571F01387028781E862
:10071000838380912A0290912B02892B21F4F093FC
:100720002B02E0932A022097C9F0D187C0878381EA
:100730008260838380912C0290912D02892B71F429
:10074000F0932D02E0932C0280912E0290912F02C3
:10075000892B21F4F0932F02E0932E02CF01DF9139
:10076000CF911F910F910895A0E0B0E0EAEBF3E084
:100770000C941108AE014B5F5F4FFA0161917191CA
:10078000AF0180912C0290912D020E94FA03E2E0C9
:100790000C942D080F931F93CF93DF93E0912C02BD
:1007A000F0912D02238121FF1BC08C01D0E0C0E01D
:1007B000F80181918F0160912C0270912D02DB0173
:1007C0001896ED91FC911997882331F00995892BA2
:1007D00079F3DFEFCFEFECCF8AE00995892B19F0A1
:1007E0008FEF9FEF02C08D2F9C2FDF91CF911F9134
:1007F0000F910895ABE0B0E0E0E0F4E00C94010864
:100800006C017B018A01FC0117821682838181FFC2
:10081000CCC1CE0101963C01F6019381F70193FD15
:10082000859193FF81917F01882309F4BAC18532B4
:1008300039F493FD859193FF81917F01853229F4ED
:10084000B60190E00E943507E7CF912C212C312C86
:10085000FFE1F315D8F08B3279F038F4803279F07B
:100860008332A1F4232D20611DC08D3261F08033CD
:1008700069F4232D216016C0832D8260382EE32D6C
:10088000E4603E2E2AC0F32DF8601DC037FC2DC059
:1008900020ED280F2A3040F08E32B9F436FC81C1A9
:1008A000232D2064322E19C036FE06C08AE0989EA1
:1008B000200D1124922E11C0EAE02E9E200D11244D
:1008C000222EF32DF0623F2E08C08C3621F4832DAA
:1008D0008068382E02C0883641F4F70193FD859177
:1008E00093FF81917F018111B3CF982F9F7D955404
:1008F000933028F40C5F1F4F9FE399830DC083361C
:1009000031F0833771F0833509F059C021C0F80107
:10091000808189830E5F1F4F88248394912C53011B
:1009200013C02801F2E04F0E511CF801A080B180E5
:1009300036FE03C0692D70E002C06FEF7FEFC50186
:100940000E942A074C018201F32DFF773F2E16C02B
:10095000280122E0420E511CF801A080B18036FE31
:1009600003C0692D70E002C06FEF7FEFC5010E94E8
:1009700018074C01F32DF0683F2E820133FC1BC099
:10098000822D90E088169906B0F4B60180E290E0DE
:100990000E9435072A94F4CFF50137FC859137FE84
:1009A00081915F01B60190E00E94350721102A94E1
:1009B00021E0821A91088114910471F7E8C084360D
:1009C00011F0893641F5F80137FE07C06081718169
:1009D000828193810C5F1F4F08C060817181072E57
:1009E000000C880B990B0E5F1F4FF32DFF763F2EE7
:1009F00097FF09C090958095709561957F4F8F4FB7
:100A00009F4FF0683F2E2AE030E0A3010E9471075B
:100A1000882E861845C0853731F4232D2F7EB22EBF
:100A20002AE030E025C0932D997FB92E8F36C1F092
:100A300018F4883579F0B5C0803719F0883721F07F
:100A4000B0C0E92FE061BE2EB4FE0DC0FB2DF460F6
:100A5000BF2E09C034FE0AC0292F2660B22E06C060
:100A600028E030E005C020E130E002C020E132E0C3
:100A7000F801B7FE07C060817181828193810C5FAC
:100A80001F4F06C06081718180E090E00E5F1F4FB4
:100A9000A3010E947107882E8618FB2DFF773F2E39
:100AA00036FE0DC0232D2E7FA22E891458F434FE5D
:100AB0000BC032FC09C0832D8E7EA82E05C0B82C39
:100AC000A32C03C0B82C01C0B92CA4FE0FC0FE019A
:100AD000E80DF11D8081803321F49A2D997EA92E95
:100AE00009C0A2FE06C0B394B39404C08A2D8678D0
:100AF00009F0B394A3FC11C0A0FE06C0B21488F4A0
:100B0000280C922C9B180EC0B21460F4B60180E23F
:100B100090E00E943507B394F7CFB21418F42B1865
:100B200002C0982C212CA4FE10C0B60180E390E0F6
:100B30000E943507A2FE17C0A1FC03C088E790E021
:100B400002C088E590E0B6010CC08A2D867859F085
:100B5000A1FE02C08BE201C080E2A7FC8DE2B601DB
:100B600090E00E943507891438F4B60180E390E0E4
:100B70000E9435079A94F7CF8A94F301E80DF11D8E
:100B80008081B60190E00E9435078110F5CF2220C8
:100B900009F442CEB60180E290E00E9435072A9423
:100BA000F6CFF6018681978102C08FEF9FEF2B96DB
:100BB000E2E10C941D080F931F93CF93DF93869F60
:100BC0008001879F100D969F100D1124C8010E946F
:100BD000F705EC01009729F0A80160E070E00E94A1
:100BE0002307CE01DF91CF911F910F9108950F93AD
:100BF0001F93CF93DF938230910510F482E090E051
:100C0000E0913202F091330220E030E0A0E0B0E069
:100C1000309719F14081518102811381481759079A
:100C2000C8F08417950769F4109731F012960C9369
:100C3000129713961C9327C000933202109333022D
:100C400022C02115310519F04217530718F49A01F3
:100C5000BD01EF01DF01F801DBCF21153105F9F00E
:100C6000281B390B2430310580F48A819B81611562
:100C7000710521F0FB019383828304C090933302BA
:100C800080933202FE01329644C0FE01E20FF31F50
:100C90008193919322503109398328833AC020915E
:100CA000300230913102232B41F420910A0130911E
:100CB0000B013093310220933002209108013091D2
:100CC00009012115310541F42DB73EB740910C01C2
:100CD00050910D01241B350BE0913002F09131024F
:100CE000E217F307A0F42E1B3F0B2817390778F003
:100CF000AC014E5F5F4F2417350748F04E0F5F1F62
:100D000050933102409330028193919302C0E0E00E
:100D1000F0E0CF01DF91CF911F910F910895CF9314
:100D2000DF93009709F481C0FC013297138212828D
:100D3000A0913202B0913302109781F42081318169
:100D4000820F931F2091300230913102281739070A
:100D500051F5F0933102E093300267C0ED0120E0DD
:100D600030E0CE17DF0740F44A815B819E014115D8
:100D70005105F1F0EA01F5CFD383C283408151815F
:100D8000840F951FC817D90759F488819981840F5A
:100D9000951F0296918380838A819B8193838283AE
:100DA0002115310529F4F0933302E09332023DC05E
:100DB000E901FB83EA8349915991C40FD51FEC17D0
:100DC000FD0761F480819181840F951F0296E901EE
:100DD00099838883828193819B838A83E0E0F0E01A
:100DE00012968D919C911397009719F0FD01DC01EB
:100DF000F7CF8D919C9111979D012E5F3F4F820FF0
:100E0000931F20913002309131022817390769F47D
:100E1000309729F4109233021092320202C01382EA
:100E20001282B0933102A0933002DF91CF910895E6
:100E3000FC010590615070400110D8F780959095A5
:100E40008E0F9F1F0895DC0101C06D9341505040EB
:100E5000E0F70895FC016150704001900110D8F74F
:100E6000809590958E0F9F1F08950F931F93CF939A
:100E7000DF93FB01238121FD03C08FEF9FEF2CC087
:100E800022FF16C0468157812481358142175307BE
:100E900044F4A081B1819D012F5F3F4F31832083B6
:100EA0008C93268137812F5F3F4F3783268314C071
:100EB0008B01EC01FB010084F185E02D0995892B64
:100EC000E1F6D80116968D919C9117970196179689
:100ED0009C938E931697CE01DF91CF911F910F9126
:100EE0000895FA01AA27283051F1203181F1E894C0
:100EF0006F936E7F6E5F7F4F8F4F9F4FAF4FB1E00D
:100F00003ED0B4E03CD0670F781F891F9A1FA11D07
:100F1000680F791F8A1F911DA11D6A0F711D811D08
:100F2000911DA11D20D009F468943F912AE0269FCD
:100F300011243019305D3193DEF6CF010895462F2C
:100F40004770405D4193B3E00FD0C9F7F6CF462F0D
:100F50004F70405D4A3318F0495D31FD4052419376
:100F600002D0A9F7EACFB4E0A69597958795779533
:100F70006795BA95C9F700976105710508959B01BA
:100F8000AC010A2E06945795479537952795BA9543
:100F9000C9F7620F731F841F951FA01D0895052EAA
:100FA00097FB1EF400940E94E60757FD07D00E94AD
:100FB000380807FC03D04EF40C94E6075095409592
:100FC000309521953F4F4F4F5F4F089590958095F5
:100FD000709561957F4F8F4F9F4F08950E945A08DB
:100FE000A59F900DB49F900DA49F800D911D11247D
:100FF0000895B7FF0C94EE070E94EE07821B930B37
:1010000008952F923F924F925F926F927F928F92AC
:101010009F92AF92BF92CF92DF92EF92FF920F9387
:101020001F93CF93DF93CDB7DEB7CA1BDB0B0FB691
:10103000F894DEBF0FBECDBF09942A88398848884E
:101040005F846E847D848C849B84AA84B984C884E4
:10105000DF80EE80FD800C811B81AA81B981CE0FDB
:10106000D11D0FB6F894DEBF0FBECDBFED010895C0
:10107000A1E21A2EAA1BBB1BFD010DC0AA1FBB1F9C
:10108000EE1FFF1FA217B307E407F50720F0A21B0E
:10109000B30BE40BF50B661F771F881F991F1A947B
:1010A00069F760957095809590959B01AC01BD01A5
:1010B000CF010895A29FB001B39FC001A39F700DFF
:1010C000811D1124911DB29F700D811D1124911D50
:0610D0000895F894FFCF23
:1010D6000012001001000000000034022000256903
:1010E6002C2025692C2025690A004C6F6164696EE5
:1010F60067206D757820636F6E6669672000202013
:101106006368616E6E656C2025753A2025750A0048
:101116005374617274696E67205352414D20746531
:1011260073742E2E2E005772697465207068617371
:1011360065206572726F723A206578745F72616DB0
:101146005B2534645D203D202530325820287368A5
:101156006F756C642062652025303258290A00526A
:10116600657472696576616C207068617365206567
:1011760072726F723A206578745F72616D5B2534A6
:10118600645D203D2025303258202873686F756CC9
:10119600642062652025303258290A005352414D99
:1011A600207465737420636F6D706C65746564205C
:1011B60077697468200A253464206572726F7273C9
:1011C60020696E2077726974652070686173652086
:1011D600616E64200A253464206572726F72732012
:1011E600696E2072657472696576616C20706861DB
:0611F60073650A0A000007
:00000001FF
