:100000000C9460030C947D030C947D030C947D038D
:100010000C947D030C947D030C947D030C947D0360
:100020000C947D030C947D030C947D030C947D0350
:100030000C947D030C947D030C947D030C947D0340
:100040000C947D030C947D030C947D030C943D066D
:100050000C947D030C947D030C947D030C947D0320
:100060000C947D030C947D030C947D030C947D0310
:1000700000000000005C00000C000C007C287C28C4
:1000800058DC68002410480028542840000C000068
:10009000007884008478000054385400107C1000EC
:1000A00080400000101010000040000060100C00A4
:1000B00038543800487C40004864580044542C00B0
:1000C0001C107C005C5424003854240064140C0080
:1000D00068542C0048543800004800008048000054
:1000E0001028440028282800442810000454080040
:1000F00038445C00781478007C5428003844280088
:100100007C4438007C5444007C140400384474005F
:100110007C107C00447C440020403C007C106C003F
:100120007C4040007C187C0078103C00384438004B
:100130007C1408003844B8007C146800485424003B
:10014000047C04007C407C003C603C007C307C00F3
:100150006C106C000C700C0064544C00007C44006B
:100160000C106000447C00000804080080808000BF
:1001700000040800304878007C48300030484800CF
:1001800030487C00306850001078140090A8780047
:100190007C08700050744000808074007C106800FF
:1001A000447C4000781078007808700030483000B7
:1001B000F82810003048F80078100800505828003F
:1001C000083C4800384078003840380078207800F3
:1001D0004830480098A0780048685800107884009B
:1001E000007C00008478100008040804000000006F
:1001F0000000005F00000007000700147F147F1458
:10020000242A7F2A1223130864623649552250009B
:1002100005030000001C2241000041221C00082AA6
:100220001C2A0808083E080800503000000808088A
:100230000808006060000020100804023E51494593
:100240003E00427F400042615149462141454B31C9
:100250001814127F1027454545393C4A4949300159
:10026000710905033649494936064949291E0036B0
:100270003600000056360000000814224114141401
:10028000141441221408000201510906324979412F
:100290003E7E1111117E7F494949363E414141223E
:1002A0007F4141221C7F494949417F090901013EA3
:1002B000414151327F0808087F00417F41002040C2
:1002C000413F017F081422417F404040407F0204AB
:1002D000027F7F0408107F3E4141413E7F090909AA
:1002E000063E4151215E7F09192946464949493157
:1002F00001017F01013F4040403F1F2040201F7F00
:100300002018207F631408146303047804036151E8
:1003100049454300007F4141020408102041417FCC
:100320000000040201020440404040400001020479
:100330000020545454787F4844443838444444207E
:10034000384444487F3854545418087E0901020840
:100350001454543C7F0804047800447D400020403D
:10036000443D00007F10284400417F40007C041879
:1003700004787C0804047838444444387C14141409
:1003800008081414187C7C080404084854545420A9
:10039000043F4440203C4040207C1C2040201C3C2A
:1003A0004030403C44281028440C5050503C446499
:1003B000544C44000836410000007F0000004136E4
:1003C000080002010302010000000000000000001C
:1003D000065F5F0600000000070700070700001423
:1003E0007F7F147F7F1400242E6B6B3A120000462F
:1003F0006630180C666200307A4F5D377A48000428
:1004000007030000000000001C3E634100000000E4
:1004100041633E1C000000082A3E1C1C3E2A0808BE
:10042000083E3E0808000000A0E060000000000850
:100430000808080808000000006060000000006074
:1004400030180C060301003E7F594D7F3E000042EC
:10045000427F7F40400000627359496F660000226E
:100460006349497F360000181C16137F7F10002750
:100470006745457D3900003C7E4B497930000003DB
:100480006371190F070000367F49497F3600000667
:100490004F49693F1E000000006C6C000000000026
:1004A000A0EC6C00000000081C3663410000001442
:1004B00014141414140000004163361C08000002D8
:1004C0000351590F0600003E7F415D5D1F1E007CF9
:1004D0007E13137E7C0000417F7F49497F36001CDC
:1004E0003E634141632200417F7F41637F1C0041A5
:1004F0007F7F495D416300417F7F491D0103001CEF
:100500003E6341517372007F7F08087F7F000000C7
:10051000417F7F41000000307040417F3F0100413A
:100520007F7F081C776300417F7F41406070007FC0
:100530007F060C067F7F007F7F060C187F7F001CE4
:100540003E6341633E1C00417F7F49090F06001E48
:100550003F21717F5E0000417F7F19396F46002681
:10056000674D597B32000003417F7F410300007FCC
:100570007F40407F7F00001F3F60603F1F00007F83
:100580007F3018307F7F0063771C081C776300077B
:100590004F78784F0700006773594D47637100002B
:1005A0007F7F41410000000103060C18306000000D
:1005B00041417F7F000000080C0603060C08008004
:1005C000808080808080800000030704000000207D
:1005D0007454543C784000413F7F44447C38003898
:1005E0007C44446C280000307848493F7F40003804
:1005F0007C54545C180000487E7F49030200009838
:10060000BCA4A4F87C0400417F7F08047C7800002F
:10061000447D7D4000000040C484FD7D0000004119
:100620007F7F10386C440000417F7F400000007CD9
:100630007C0C180C7C78007C7C04047C78000038EE
:100640007C44447C38000084FCF8A4243C18001846
:100650003C24A4F8FC8400447C78441C1800004826
:100660005C54547424000000043E7F442400003C89
:100670007C40403C7C40001C3C60603C1C00003CDA
:100680007C6030607C3C00446C3810386C44009CCA
:10069000BCA0A0FC7C00004C64745C4C64000008AE
:1006A000083E7741410000000000777700000041DC
:1006B00041773E0808000002030103020301000025
:1006C00011241FBECFEFD4E0DEBFCDBF12E0A0E00B
:1006D000B1E0E2E8F7E102C005900D92AA31B1075E
:1006E000D9F722E0AAE1B2E001C01D92A832B20718
:1006F000E1F70E947F030C94BF0B0C940000CF9392
:10070000DF931F92CDB7DEB70E9449060E945906BB
:100710000E94BA030E9430050E944B0461E576E016
:1007200085E596E00E94BF0678940E94CA032FEFE9
:100730008FEF9EE0215080409040E1F700C0000024
:1007400080E090E00E94F80381E00E94D40480E001
:100750000E94E50486E38983CE0101960E94180574
:100760002FEF8FE791E0215080409040E1F700C0EB
:1007700000C0F2CF8FB581608FBD8EB588608EBD11
:100780008D9A80E88ABD8FB580688FBD8EB58160F7
:100790008EBD0895EF92FF921F93CF93DF938EE06B
:1007A00091E00E942007C0E0D5E10F2EF2E2EF2E8B
:1007B000F1E0FF2EF02D1C2F10611F921F93CE0130
:1007C00095519F938F93FF92EF920E940A0719937E
:1007D0000F900F900F900F900F900F90C43085E105
:1007E000D80749F7DF91CF911F91FF90EF900895BF
:1007F00010920015289BFECFA82FB92FE0E0F5E15D
:1008000081918D93E43085E1F807D1F70895CF9376
:10081000DF9300D000D0CDB7DEB7CE0101960E94A5
:10082000F8038A8190E08058910944E6489F90013E
:10083000499F300D1124332314F421583F4F220FC8
:10084000232F221F330B80911C0290911D02A901BE
:10085000481B590B898190E08058910964E6689F94
:100860009001699F300D1124332314F421583F4F18
:10087000220F232F221F330BE0911A02F0911B024B
:10088000B9016E1B7F0BCA010F900F900F900F9054
:10089000DF91CF9108952FEF8FE791E021508040B5
:1008A0009040E1F700C000C00E94070470931B0253
:1008B00060931A0290931D0280931C0208950E9477
:1008C0000704FB01AC019B012F5C3F4F2336310530
:1008D00030F49C012F5C3F4F23363105F8F0DC01EA
:1008E000552324F4AA27BB27A81BB90B9B01FF2380
:1008F00024F422273327261B370B2A173B073CF407
:10090000852F881F8827881F90E002960895872FDB
:100910008095881F8827881F90E0089584E090E0E4
:100920000895CF93DF9300D000D0CDB7DEB7CE01CE
:1009300001960E94F8038C8190E08058910944E66A
:10094000489F9001499F300D1124332314F42158FE
:100950003F4F220F232F221F330B8B8190E08058B3
:10096000910964E6689FA001699F500D11245523E9
:1009700014F441585F4FBA01660F672F661F770B5B
:10098000C9010F900F900F900F90DF91CF910895B4
:10099000E0910201F091030180830895E09100014C
:1009A000F091010180830895E0910201F09103012B
:1009B000806B8083089580E0E0910001F091010157
:1009C00010828F5F8038C1F70895E0910201F091A5
:1009D0000301982F92959F7090619083E09102019E
:1009E000F09103018F7080830895CF93C82F862FD5
:1009F0000E94E5048C2F0E94D404CF910895CF93D8
:100A0000C0E08C2F0E94D40480E0E0910001F091BE
:100A100001011082E1EEF4E03197F1F700C000002F
:100A20008F5F803891F7CF5FC83059F7CF91089525
:100A3000CF93DF93EC0128E030E0A0910001B0916A
:100A40000101E88188E0E802F0011124E953FC4F3C
:100A500090819C932150310981F7DF91CF910895C6
:100A6000E0910201F09103018EEA8083E09102019E
:100A7000F091030181EA8083E0910201F09103018A
:100A80008AED8083E0910201F091030182E180838D
:100A9000E0910201F091030188EC8083E091020172
:100AA000F091030188EA8083E0910201F091030153
:100AB0008FE38083E0910201F091030185ED808353
:100AC000E0910201F091030180E88083E09102014E
:100AD000F091030181E88083E0910201F09103012C
:100AE00080E58083E0910201F091030189ED80832C
:100AF000E0910201F091030181E28083E091020123
:100B0000F091030180E28083E0910201F091030102
:100B100082E08083E0910201F09103018BED8083FC
:100B2000E0910201F091030180E38083E0910201F2
:100B3000F09103018DEA8083E0910201F0910301BD
:100B40001082E0910201F091030184EA8083E09138
:100B50000201F091030186EA8083E0910201F091A5
:100B600003018FEA8083E0910201F091030180E1AB
:100B700080830895CF92DF92EF92FF920F931F939D
:100B8000CF93DF9384E391E00E9420070E94AF0699
:100B90007C010E94B406C12CD12C00E010E0CAE414
:100BA000D1E00E94AF06F601F85E8083208128170D
:100BB000A9F099279F938F931F922F93DF92CF9243
:100BC000DF93CF930E940A070F5F1F4F8DB79EB729
:100BD00008960FB6F8949EBF0FBE8DBF9FEFC91A3F
:100BE000D90AC11488E0D806E1F6C7010E94B4060C
:100BF000C0E0D0E0E12CF12C0F2EF3E8CF2EF1E095
:100C0000DF2EF02D0E94AF06FE01F85E208128172E
:100C1000B1F099279F938F931F922F93DF93CF93D8
:100C2000DF92CF920E940A079FEFE91AF90A8DB767
:100C30009EB708960FB6F8949EBF0FBE8DBF219643
:100C4000C11598E0D907F1F6FF92EF921F930F9329
:100C500080EC91E09F938F930E940A070F900F9072
:100C60000F900F900F900F90DF91CF911F910F91E8
:100C7000FF90EF90DF90CF9008951F920F920FB6E4
:100C80000F921124F89478940F900FBE0F901F903C
:100C900018958FE189B988E18AB986E880BD579AAD
:100CA00008955F9BFECF8CB108955D9BFECF8CB9FC
:100CB000089580B7806280BF85B7826085BF85B7A1
:100CC000806885BF08958F929F92AF92BF92CF9216
:100CD000DF92EF92FF92CF93DF93EC0168817981ED
:100CE0008A819B81611571058105910521F464E27A
:100CF00079ED8BE597E02DE133EF41E050E00E9484
:100D0000250B49015A019B01AC01A7EAB1E40E94FD
:100D1000440B6B017C01ACEEB4EFA50194010E9481
:100D2000520BDC01CB018C0D9D1DAE1DBF1DB7FF0D
:100D300003C00197A109B04888839983AA83BB8324
:100D40009F77DF91CF91FF90EF90DF90CF90BF9092
:100D5000AF909F908F9008950E946306089584E05D
:100D600091E00E9463060895A0E0B0E08093040142
:100D700090930501A0930601B093070108950F9386
:100D80001F93CF93DF93009731F46115710519F428
:100D900080E090E03AC08B01EC016EE070E081E011
:100DA00090E00E943109FC01892B91F380E8838354
:100DB0000115110571F01387028781E88383809103
:100DC0001E0290911F02892B21F4F0931F02E093E1
:100DD0001E022097C9F0D187C087838182608383F8
:100DE0008091200290912102892B71F4F0932102CD
:100DF000E09320028091220290912302892B21F41A
:100E0000F0932302E0932202CF01DF91CF911F9153
:100E10000F910895A0E0B0E0E0E1F7E00C94670BDB
:100E2000AE014B5F5F4FFA0161917191AF0180910B
:100E30002002909121020E945007E2E00C94830B63
:100E40000F931F93CF93DF93E0912002F091210243
:100E5000238121FF1BC08C01D0E0C0E0F80181910B
:100E60008F016091200270912102DB011896ED91B3
:100E7000FC911997882331F00995892B79F3DFEFDD
:100E8000CFEFECCF8AE00995892B19F08FEF9FEF18
:100E900002C08D2F9C2FDF91CF911F910F9108954C
:100EA000ABE0B0E0E6E5F7E00C94570B6C017B019A
:100EB0008A01FC0117821682838181FFCCC1CE0199
:100EC00001963C01F6019381F70193FD859193FF13
:100ED00081917F01882309F4BAC1853239F493FDE9
:100EE000859193FF81917F01853229F4B60190E0CD
:100EF0000E948B0AE7CF912C212C312CFFE1F315B6
:100F0000D8F08B3279F038F4803279F08332A1F462
:100F1000232D20611DC08D3261F0803369F4232DB3
:100F2000216016C0832D8260382EE32DE4603E2EB2
:100F30002AC0F32DF8601DC037FC2DC020ED280F0E
:100F40002A3040F08E32B9F436FC81C1232D206462
:100F5000322E19C036FE06C08AE0989E200D11245C
:100F6000922E11C0EAE02E9E200D1124222EF32D88
:100F7000F0623F2E08C08C3621F4832D8068382E15
:100F800002C0883641F4F70193FD859193FF81916A
:100F90007F018111B3CF982F9F7D9554933028F412
:100FA0000C5F1F4F9FE399830DC0833631F0833769
:100FB00071F0833509F059C021C0F801808189831F
:100FC0000E5F1F4F88248394912C530113C0280176
:100FD000F2E04F0E511CF801A080B18036FE03C034
:100FE000692D70E002C06FEF7FEFC5010E94800A9B
:100FF0004C018201F32DFF773F2E16C0280122E01D
:10100000420E511CF801A080B18036FE03C0692D4C
:1010100070E002C06FEF7FEFC5010E946E0A4C01C5
:10102000F32DF0683F2E820133FC1BC0822D90E02F
:1010300088169906B0F4B60180E290E00E948B0A0F
:101040002A94F4CFF50137FC859137FE81915F0139
:10105000B60190E00E948B0A21102A9421E0821AA6
:1010600091088114910471F7E8C0843611F0893633
:1010700041F5F80137FE07C060817181828193815B
:101080000C5F1F4F08C060817181072E000C880B18
:10109000990B0E5F1F4FF32DFF763F2E97FF09C070
:1010A00090958095709561957F4F8F4F9F4FF06819
:1010B0003F2E2AE030E0A3010E94C70A882E86183E
:1010C00045C0853731F4232D2F7EB22E2AE030E043
:1010D00025C0932D997FB92E8F36C1F018F488352D
:1010E00079F0B5C0803719F0883721F0B0C0E92F0A
:1010F000E061BE2EB4FE0DC0FB2DF460BF2E09C012
:1011000034FE0AC0292F2660B22E06C028E030E047
:1011100005C020E130E002C020E132E0F801B7FE76
:1011200007C060817181828193810C5F1F4F06C06F
:101130006081718180E090E00E5F1F4FA3010E94EB
:10114000C70A882E8618FB2DFF773F2E36FE0DC06E
:10115000232D2E7FA22E891458F434FE0BC032FCAE
:1011600009C0832D8E7EA82E05C0B82CA32C03C0E9
:10117000B82C01C0B92CA4FE0FC0FE01E80DF11D72
:101180008081803321F49A2D997EA92E09C0A2FE78
:1011900006C0B394B39404C08A2D867809F0B39442
:1011A000A3FC11C0A0FE06C0B21488F4280C922C37
:1011B0009B180EC0B21460F4B60180E290E00E9469
:1011C0008B0AB394F7CFB21418F42B1802C0982CE2
:1011D000212CA4FE10C0B60180E390E00E948B0A8F
:1011E000A2FE17C0A1FC03C088E790E002C088E51A
:1011F00090E0B6010CC08A2D867859F0A1FE02C09D
:101200008BE201C080E2A7FC8DE2B60190E00E9473
:101210008B0A891438F4B60180E390E00E948B0AAF
:101220009A94F7CF8A94F301E80DF11D8081B601FD
:1012300090E00E948B0A8110F5CF222009F442CE63
:10124000B60180E290E00E948B0A2A94F6CFF60164
:101250008681978102C08FEF9FEF2B96E2E10C947D
:10126000730B0F931F93CF93DF93869F8001879F0C
:10127000100D969F100D1124C8010E944D09EC011C
:10128000009729F0A80160E070E00E94790ACE0181
:10129000DF91CF911F910F9108950F931F93CF93DB
:1012A000DF938230910510F482E090E0E091260215
:1012B000F091270220E030E0A0E0B0E0309719F193
:1012C000408151810281138148175907C8F0841762
:1012D000950769F4109731F012960C9312971396B4
:1012E0001C9327C0009326021093270222C02115C9
:1012F000310519F04217530718F49A01BD01EF01A7
:10130000DF01F801DBCF21153105F9F0281B390B7E
:101310002430310580F48A819B816115710521F0AB
:10132000FB019383828304C090932702809326025B
:10133000FE01329644C0FE01E20FF31F81939193A8
:1013400022503109398328833AC0209124023091F8
:101350002502232B41F420910A0130910B01309397
:1013600025022093240220910801309109012115C2
:10137000310541F42DB73EB740910C0150910D015C
:10138000241B350BE0912402F0912502E217F307AC
:10139000A0F42E1B3F0B2817390778F0AC014E5FE5
:1013A0005F4F2417350748F04E0F5F1F50932502FB
:1013B000409324028193919302C0E0E0F0E0CF01DA
:1013C000DF91CF911F910F910895CF93DF930097F5
:1013D00009F481C0FC01329713821282A091260287
:1013E000B0912702109781F420813181820F931FE1
:1013F00020912402309125022817390751F5F093E6
:101400002502E093240267C0ED0120E030E0CE1712
:10141000DF0740F44A815B819E0141155105F1F0DF
:10142000EA01F5CFD383C28340815181840F951F98
:10143000C817D90759F488819981840F951F02969E
:10144000918380838A819B819383828321153105D7
:1014500029F4F0932702E09326023DC0E901FB83C3
:10146000EA8349915991C40FD51FEC17FD0761F428
:1014700080819181840F951F0296E9019983888369
:10148000828193819B838A83E0E0F0E012968D91C4
:101490009C911397009719F0FD01DC01F7CF8D9116
:1014A0009C9111979D012E5F3F4F820F931F2091BA
:1014B0002402309125022817390769F4309729F45E
:1014C000109227021092260202C013821282B09359
:1014D0002502A0932402DF91CF910895FC0105908D
:1014E000615070400110D8F7809590958E0F9F1F26
:1014F0000895DC0101C06D9341505040E0F708951C
:10150000FC016150704001900110D8F780959095D2
:101510008E0F9F1F08950F931F93CF93DF93FB01AF
:10152000238121FD03C08FEF9FEF2CC022FF16C047
:1015300046815781248135814217530744F4A081A5
:10154000B1819D012F5F3F4F318320838C93268192
:1015500037812F5F3F4F3783268314C08B01EC0107
:10156000FB010084F185E02D0995892BE1F6D80176
:1015700016968D919C911797019617969C938E9332
:101580001697CE01DF91CF911F910F910895FA0127
:10159000AA27283051F1203181F1E8946F936E7FB2
:1015A0006E5F7F4F8F4F9F4FAF4FB1E03ED0B4E0A3
:1015B0003CD0670F781F891F9A1FA11D680F791FE4
:1015C0008A1F911DA11D6A0F711D811D911DA11DF5
:1015D00020D009F468943F912AE0269F1124301905
:1015E000305D3193DEF6CF010895462F4770405DA0
:1015F0004193B3E00FD0C9F7F6CF462F4F70405D4F
:101600004A3318F0495D31FD4052419302D0A9F7A9
:10161000EACFB4E0A6959795879577956795BA95A3
:10162000C9F700976105710508959B01AC010A2E69
:1016300006945795479537952795BA95C9F7620F40
:10164000731F841F951FA01D0895052E97FB1EF480
:1016500000940E943C0B57FD07D00E948E0B07FCA4
:1016600003D04EF40C943C0B509540953095219549
:101670003F4F4F4F5F4F08959095809570956195BE
:101680007F4F8F4F9F4F08950E94B00BA59F900DE5
:10169000B49F900DA49F800D911D11240895B7FF54
:1016A0000C94440B0E94440B821B930B08952F92C1
:1016B0003F924F925F926F927F928F929F92AF92E2
:1016C000BF92CF92DF92EF92FF920F931F93CF932F
:1016D000DF93CDB7DEB7CA1BDB0B0FB6F894DEBFC6
:1016E0000FBECDBF09942A88398848885F846E84EC
:1016F0007D848C849B84AA84B984C884DF80EE8036
:10170000FD800C811B81AA81B981CE0FD11D0FB63E
:10171000F894DEBF0FBECDBFED010895A1E21A2EF1
:10172000AA1BBB1BFD010DC0AA1FBB1FEE1FFF1F85
:10173000A217B307E407F50720F0A21BB30BE40BD5
:10174000F50B661F771F881F991F1A9469F760951C
:101750007095809590959B01AC01BD01CF010895D6
:10176000A29FB001B39FC001A39F700D811D1124E2
:10177000911DB29F700D811D1124911D0895F89443
:02178000FFCF99
:1017820000120010010000000000280220004C6F2F
:101792006164696E67206D757820636F6E66696734
:1017A200200020206368616E6E656C2025753A20EA
:1017B20025750A005374617274696E672053524131
:1017C2004D20746573742E2E2E0057726974652035
:1017D2007068617365206572726F723A2065787401
:1017E2005F72616D5B2534645D203D202530325887
:1017F200202873686F756C6420626520253032582A
:10180200290A0052657472696576616C207068619C
:101812007365206572726F723A206578745F7261C7
:101822006D5B2534645D203D2025303258202873BD
:10183200686F756C642062652025303258290A0071
:101842005352414D207465737420636F6D706C65E3
:101852007465642077697468200A2534642065728F
:10186200726F727320696E20777269746520706876
:1018720061736520616E64200A253464206572728A
:101882006F727320696E2072657472696576616C1D
:0A1892002070686173650A0A000007
:00000001FF
